{
  "_format": "hh-sol-artifact-1",
  "contractName": "MedicalReportSystem",
  "sourceName": "contracts/MedicalReportSystem.sol",
  "abi": [
    {
      "anonymous": false,
      "inputs": [
        {
          "indexed": true,
          "internalType": "address",
          "name": "patient",
          "type": "address"
        },
        {
          "indexed": true,
          "internalType": "address",
          "name": "doctor",
          "type": "address"
        }
      ],
      "name": "AccessGranted",
      "type": "event"
    },
    {
      "anonymous": false,
      "inputs": [
        {
          "indexed": true,
          "internalType": "address",
          "name": "patient",
          "type": "address"
        },
        {
          "indexed": true,
          "internalType": "address",
          "name": "doctor",
          "type": "address"
        }
      ],
      "name": "AccessRevoked",
      "type": "event"
    },
    {
      "anonymous": false,
      "inputs": [
        {
          "indexed": true,
          "internalType": "address",
          "name": "patient",
          "type": "address"
        },
        {
          "indexed": false,
          "internalType": "string",
          "name": "ipfsHash",
          "type": "string"
        },
        {
          "indexed": false,
          "internalType": "uint256",
          "name": "timestamp",
          "type": "uint256"
        }
      ],
      "name": "ReportUploaded",
      "type": "event"
    },
    {
      "anonymous": false,
      "inputs": [
        {
          "indexed": true,
          "internalType": "address",
          "name": "user",
          "type": "address"
        },
        {
          "indexed": false,
          "internalType": "enum MedicalReportSystem.Role",
          "name": "role",
          "type": "uint8"
        }
      ],
      "name": "UserRegistered",
      "type": "event"
    },
    {
      "inputs": [
        {
          "internalType": "address",
          "name": "",
          "type": "address"
        },
        {
          "internalType": "address",
          "name": "",
          "type": "address"
        }
      ],
      "name": "accessPermissions",
      "outputs": [
        {
          "internalType": "bool",
          "name": "",
          "type": "bool"
        }
      ],
      "stateMutability": "view",
      "type": "function"
    },
    {
      "inputs": [
        {
          "internalType": "address",
          "name": "_patient",
          "type": "address"
        },
        {
          "internalType": "address",
          "name": "_doctor",
          "type": "address"
        }
      ],
      "name": "checkAccess",
      "outputs": [
        {
          "internalType": "bool",
          "name": "",
          "type": "bool"
        }
      ],
      "stateMutability": "view",
      "type": "function"
    },
    {
      "inputs": [
        {
          "internalType": "address",
          "name": "",
          "type": "address"
        },
        {
          "internalType": "uint256",
          "name": "",
          "type": "uint256"
        }
      ],
      "name": "doctorPatients",
      "outputs": [
        {
          "internalType": "address",
          "name": "",
          "type": "address"
        }
      ],
      "stateMutability": "view",
      "type": "function"
    },
    {
      "inputs": [],
      "name": "getMyDoctors",
      "outputs": [
        {
          "internalType": "address[]",
          "name": "",
          "type": "address[]"
        }
      ],
      "stateMutability": "view",
      "type": "function"
    },
    {
      "inputs": [],
      "name": "getMyPatients",
      "outputs": [
        {
          "internalType": "address[]",
          "name": "",
          "type": "address[]"
        }
      ],
      "stateMutability": "view",
      "type": "function"
    },
    {
      "inputs": [],
      "name": "getMyReports",
      "outputs": [
        {
          "components": [
            {
              "internalType": "string",
              "name": "ipfsHash",
              "type": "string"
            },
            {
              "internalType": "uint256",
              "name": "timestamp",
              "type": "uint256"
            },
            {
              "internalType": "address",
              "name": "patient",
              "type": "address"
            },
            {
              "internalType": "bool",
              "name": "isActive",
              "type": "bool"
            }
          ],
          "internalType": "struct MedicalReportSystem.Report[]",
          "name": "",
          "type": "tuple[]"
        }
      ],
      "stateMutability": "view",
      "type": "function"
    },
    {
      "inputs": [
        {
          "internalType": "address",
          "name": "_patient",
          "type": "address"
        }
      ],
      "name": "getPatientReports",
      "outputs": [
        {
          "components": [
            {
              "internalType": "string",
              "name": "ipfsHash",
              "type": "string"
            },
            {
              "internalType": "uint256",
              "name": "timestamp",
              "type": "uint256"
            },
            {
              "internalType": "address",
              "name": "patient",
              "type": "address"
            },
            {
              "internalType": "bool",
              "name": "isActive",
              "type": "bool"
            }
          ],
          "internalType": "struct MedicalReportSystem.Report[]",
          "name": "",
          "type": "tuple[]"
        }
      ],
      "stateMutability": "view",
      "type": "function"
    },
    {
      "inputs": [
        {
          "internalType": "address",
          "name": "_user",
          "type": "address"
        }
      ],
      "name": "getUser",
      "outputs": [
        {
          "internalType": "enum MedicalReportSystem.Role",
          "name": "",
          "type": "uint8"
        },
        {
          "internalType": "bool",
          "name": "",
          "type": "bool"
        },
        {
          "internalType": "uint256",
          "name": "",
          "type": "uint256"
        }
      ],
      "stateMutability": "view",
      "type": "function"
    },
    {
      "inputs": [
        {
          "internalType": "address",
          "name": "_doctor",
          "type": "address"
        }
      ],
      "name": "grantAccess",
      "outputs": [],
      "stateMutability": "nonpayable",
      "type": "function"
    },
    {
      "inputs": [
        {
          "internalType": "address",
          "name": "",
          "type": "address"
        },
        {
          "internalType": "uint256",
          "name": "",
          "type": "uint256"
        }
      ],
      "name": "patientDoctors",
      "outputs": [
        {
          "internalType": "address",
          "name": "",
          "type": "address"
        }
      ],
      "stateMutability": "view",
      "type": "function"
    },
    {
      "inputs": [
        {
          "internalType": "address",
          "name": "",
          "type": "address"
        },
        {
          "internalType": "uint256",
          "name": "",
          "type": "uint256"
        }
      ],
      "name": "patientReports",
      "outputs": [
        {
          "internalType": "string",
          "name": "ipfsHash",
          "type": "string"
        },
        {
          "internalType": "uint256",
          "name": "timestamp",
          "type": "uint256"
        },
        {
          "internalType": "address",
          "name": "patient",
          "type": "address"
        },
        {
          "internalType": "bool",
          "name": "isActive",
          "type": "bool"
        }
      ],
      "stateMutability": "view",
      "type": "function"
    },
    {
      "inputs": [
        {
          "internalType": "enum MedicalReportSystem.Role",
          "name": "_role",
          "type": "uint8"
        }
      ],
      "name": "register",
      "outputs": [],
      "stateMutability": "nonpayable",
      "type": "function"
    },
    {
      "inputs": [
        {
          "internalType": "address",
          "name": "_doctor",
          "type": "address"
        }
      ],
      "name": "revokeAccess",
      "outputs": [],
      "stateMutability": "nonpayable",
      "type": "function"
    },
    {
      "inputs": [
        {
          "internalType": "string",
          "name": "_ipfsHash",
          "type": "string"
        }
      ],
      "name": "uploadReport",
      "outputs": [],
      "stateMutability": "nonpayable",
      "type": "function"
    },
    {
      "inputs": [
        {
          "internalType": "address",
          "name": "",
          "type": "address"
        }
      ],
      "name": "users",
      "outputs": [
        {
          "internalType": "enum MedicalReportSystem.Role",
          "name": "role",
          "type": "uint8"
        },
        {
          "internalType": "bool",
          "name": "isRegistered",
          "type": "bool"
        },
        {
          "internalType": "uint256",
          "name": "registrationTime",
          "type": "uint256"
        }
      ],
      "stateMutability": "view",
      "type": "function"
    }
  ],
  "bytecode": "0x608060405234801561001057600080fd5b506118c7806100206000396000f3fe608060405234801561001057600080fd5b50600436106100f55760003560e01c8063684b083411610097578063a87430ba11610066578063a87430ba14610221578063dafe614e14610255578063e65a069114610268578063fb9866061461027b57600080fd5b8063684b0834146101d15780636c13139d146101e45780636f77926b146101ec57806385e685311461020e57600080fd5b806361d689fa116100d357806361d689fa1461015857806362e1f7451461016b57806364b3b5251461018e578063681dbbbf146101bc57600080fd5b80630ae5e739146100fa578063441131c91461010f5780634ac9e3001461012d575b600080fd5b61010d61010836600461132d565b61029e565b005b6101176104b0565b604051610124919061134f565b60405180910390f35b61014061013b36600461139c565b6105ba565b6040516001600160a01b039091168152602001610124565b61010d6101663660046113c6565b6105f2565b61017e6101793660046113e7565b610788565b6040519015158152602001610124565b61017e61019c3660046113e7565b600260209081526000928352604080842090915290825290205460ff1681565b6101c46107b8565b6040516101249190611460565b61010d6101df36600461150c565b61095e565b610117610af1565b6101ff6101fa36600461132d565b610bd2565b604051610124939291906115f5565b61010d61021c36600461132d565b610c5c565b6101ff61022f36600461132d565b6000602081905290815260409020805460019091015460ff808316926101009004169083565b61014061026336600461139c565b610fd5565b6101c461027636600461132d565b610ff1565b61028e61028936600461139c565b611232565b6040516101249493929190611614565b33600090815260208190526040902054610100900460ff166102db5760405162461bcd60e51b81526004016102d29061164e565b60405180910390fd5b60013360009081526020819052604090205460ff166002811115610301576103016115bd565b1461031e5760405162461bcd60e51b81526004016102d29061167b565b60026001600160a01b03821660009081526020819052604090205460ff16600281111561034d5761034d6115bd565b1461039a5760405162461bcd60e51b815260206004820152601760248201527f41646472657373206973206e6f74206120646f63746f7200000000000000000060448201526064016102d2565b3360009081526002602090815260408083206001600160a01b038516845290915290205460ff16156104075760405162461bcd60e51b81526020600482015260166024820152751058d8d95cdcc8185b1c9958591e4819dc985b9d195960521b60448201526064016102d2565b3360008181526002602090815260408083206001600160a01b038616808552908352818420805460ff1916600190811790915585855260038452828520805480830182559086528486200180546001600160a01b03199081168417909155828652600485528386208054928301815586529385200180549093168517909255519092917f9f520b3bfc56d06f7065d10b4683b3f57ac8895d5026cd176dee95ce1454cb8d91a350565b33600090815260208190526040902054606090610100900460ff166104e75760405162461bcd60e51b81526004016102d29061164e565b60023360009081526020819052604090205460ff16600281111561050d5761050d6115bd565b146105515760405162461bcd60e51b815260206004820152601460248201527313db9b1e48191bd8dd1bdc9cc8185b1b1bddd95960621b60448201526064016102d2565b33600090815260046020908152604091829020805483518184028101840190945280845290918301828280156105b057602002820191906000526020600020905b81546001600160a01b03168152600190910190602001808311610592575b5050505050905090565b600460205281600052604060002081815481106105d657600080fd5b6000918252602090912001546001600160a01b03169150829050565b6001816002811115610606576106066115bd565b148061062357506002816002811115610621576106216115bd565b145b61065e5760405162461bcd60e51b815260206004820152600c60248201526b496e76616c696420726f6c6560a01b60448201526064016102d2565b33600090815260208190526040902054610100900460ff16156106c35760405162461bcd60e51b815260206004820152601760248201527f5573657220616c7265616479207265676973746572656400000000000000000060448201526064016102d2565b60405180606001604052808260028111156106e0576106e06115bd565b8152600160208083018290524260409384015233600090815290819052919091208251815491929091839160ff1990911690836002811115610724576107246115bd565b0217905550602082015181549015156101000261ff00199091161781556040918201516001909101555133907f8e18574f8a7333e6a87112742a55853a643e2f0550f4e1a3a2c3f1bb2994441d9061077d9084906116aa565b60405180910390a250565b6001600160a01b0380831660009081526002602090815260408083209385168352929052205460ff165b92915050565b33600090815260208190526040902054606090610100900460ff166107ef5760405162461bcd60e51b81526004016102d29061164e565b60013360009081526020819052604090205460ff166002811115610815576108156115bd565b146108325760405162461bcd60e51b81526004016102d29061167b565b33600090815260016020908152604080832080548251818502810185019093528083529193909284015b82821015610955578382906000526020600020906003020160405180608001604052908160008201805461088f906116b8565b80601f01602080910402602001604051908101604052809291908181526020018280546108bb906116b8565b80156109085780601f106108dd57610100808354040283529160200191610908565b820191906000526020600020905b8154815290600101906020018083116108eb57829003601f168201915b50505091835250506001828101546020808401919091526002909301546001600160a01b0381166040840152600160a01b900460ff1615156060909201919091529183529201910161085c565b50505050905090565b33600090815260208190526040902054610100900460ff166109925760405162461bcd60e51b81526004016102d29061164e565b60013360009081526020819052604090205460ff1660028111156109b8576109b86115bd565b146109d55760405162461bcd60e51b81526004016102d29061167b565b6000815111610a265760405162461bcd60e51b815260206004820152601960248201527f4950465320686173682063616e6e6f7420626520656d7074790000000000000060448201526064016102d2565b336000818152600160208181526040808420815160808101835287815242818501529182019590955260608101839052845492830185559383529091208251600390920201908190610a789082611741565b5060208201516001820155604080830151600290920180546060909401511515600160a01b026001600160a81b03199094166001600160a01b03909316929092179290921790555133907fe1aed20e1d734155d4b0887061625091f1d7ee3b73554e26a1a477d87774c6189061077d9084904290611801565b33600090815260208190526040902054606090610100900460ff16610b285760405162461bcd60e51b81526004016102d29061164e565b60013360009081526020819052604090205460ff166002811115610b4e57610b4e6115bd565b14610b6b5760405162461bcd60e51b81526004016102d29061167b565b33600090815260036020908152604091829020805483518184028101840190945280845290918301828280156105b0576020028201919060005260206000209081546001600160a01b03168152600190910190602001808311610592575050505050905090565b6001600160a01b0381166000908152602081905260408082208151606081019092528054839283928392829060ff166002811115610c1257610c126115bd565b6002811115610c2357610c236115bd565b81528154610100900460ff1615156020808301919091526001909201546040918201528251918301519201519097919650945092505050565b33600090815260208190526040902054610100900460ff16610c905760405162461bcd60e51b81526004016102d29061164e565b60013360009081526020819052604090205460ff166002811115610cb657610cb66115bd565b14610cd35760405162461bcd60e51b81526004016102d29061167b565b3360009081526002602090815260408083206001600160a01b038516845290915290205460ff16610d3b5760405162461bcd60e51b81526020600482015260126024820152711058d8d95cdcc81b9bdd0819dc985b9d195960721b60448201526064016102d2565b3360008181526002602090815260408083206001600160a01b03861684528252808320805460ff1916905592825260039052908120905b8154811015610e7857826001600160a01b0316828281548110610d9757610d97611823565b6000918252602090912001546001600160a01b031603610e665781548290610dc19060019061184f565b81548110610dd157610dd1611823565b9060005260206000200160009054906101000a90046001600160a01b0316828281548110610e0157610e01611823565b9060005260206000200160006101000a8154816001600160a01b0302191690836001600160a01b0316021790555081805480610e3f57610e3f611862565b600082815260209020810160001990810180546001600160a01b0319169055019055610e78565b80610e7081611878565b915050610d72565b506001600160a01b0382166000908152600460205260408120905b8154811015610f9957336001600160a01b0316828281548110610eb857610eb8611823565b6000918252602090912001546001600160a01b031603610f875781548290610ee29060019061184f565b81548110610ef257610ef2611823565b9060005260206000200160009054906101000a90046001600160a01b0316828281548110610f2257610f22611823565b9060005260206000200160006101000a8154816001600160a01b0302191690836001600160a01b0316021790555081805480610f6057610f60611862565b600082815260209020810160001990810180546001600160a01b0319169055019055610f99565b80610f9181611878565b915050610e93565b506040516001600160a01b0384169033907f825c8be24eb0df19500f63e86c29e7d0d951e73056b889b891d85e40938d9b6e90600090a3505050565b600360205281600052604060002081815481106105d657600080fd5b33600090815260208190526040902054606090610100900460ff166110285760405162461bcd60e51b81526004016102d29061164e565b60023360009081526020819052604090205460ff16600281111561104e5761104e6115bd565b146110925760405162461bcd60e51b815260206004820152601460248201527313db9b1e48191bd8dd1bdc9cc8185b1b1bddd95960621b60448201526064016102d2565b6001600160a01b038216600090815260026020908152604080832033845290915290205460ff166110fa5760405162461bcd60e51b81526020600482015260126024820152711058d8d95cdcc81b9bdd0819dc985b9d195960721b60448201526064016102d2565b6001600160a01b038216600090815260016020908152604080832080548251818502810185019093528083529193909284015b828210156112265783829060005260206000209060030201604051806080016040529081600082018054611160906116b8565b80601f016020809104026020016040519081016040528092919081815260200182805461118c906116b8565b80156111d95780601f106111ae576101008083540402835291602001916111d9565b820191906000526020600020905b8154815290600101906020018083116111bc57829003601f168201915b50505091835250506001828101546020808401919091526002909301546001600160a01b0381166040840152600160a01b900460ff1615156060909201919091529183529201910161112d565b5050505090505b919050565b6001602052816000526040600020818154811061124e57600080fd5b906000526020600020906003020160009150915050806000018054611272906116b8565b80601f016020809104026020016040519081016040528092919081815260200182805461129e906116b8565b80156112eb5780601f106112c0576101008083540402835291602001916112eb565b820191906000526020600020905b8154815290600101906020018083116112ce57829003601f168201915b5050505060018301546002909301549192916001600160a01b0381169150600160a01b900460ff1684565b80356001600160a01b038116811461122d57600080fd5b60006020828403121561133f57600080fd5b61134882611316565b9392505050565b6020808252825182820181905260009190848201906040850190845b818110156113905783516001600160a01b03168352928401929184019160010161136b565b50909695505050505050565b600080604083850312156113af57600080fd5b6113b883611316565b946020939093013593505050565b6000602082840312156113d857600080fd5b81356003811061134857600080fd5b600080604083850312156113fa57600080fd5b61140383611316565b915061141160208401611316565b90509250929050565b6000815180845260005b8181101561144057602081850181015186830182015201611424565b506000602082860101526020601f19601f83011685010191505092915050565b60006020808301818452808551808352604092508286019150828160051b87010184880160005b838110156114e857603f198984030185528151608081518186526114ad8287018261141a565b838b0151878c0152898401516001600160a01b03168a8801526060938401511515939096019290925250509386019390860190600101611487565b509098975050505050505050565b634e487b7160e01b600052604160045260246000fd5b60006020828403121561151e57600080fd5b813567ffffffffffffffff8082111561153657600080fd5b818401915084601f83011261154a57600080fd5b81358181111561155c5761155c6114f6565b604051601f8201601f19908116603f01168101908382118183101715611584576115846114f6565b8160405282815287602084870101111561159d57600080fd5b826020860160208301376000928101602001929092525095945050505050565b634e487b7160e01b600052602160045260246000fd5b600381106115f157634e487b7160e01b600052602160045260246000fd5b9052565b6060810161160382866115d3565b921515602082015260400152919050565b608081526000611627608083018761141a565b6020830195909552506001600160a01b039290921660408301521515606090910152919050565b602080825260139082015272155cd95c881b9bdd081c9959da5cdd195c9959606a1b604082015260600190565b60208082526015908201527413db9b1e481c185d1a595b9d1cc8185b1b1bddd959605a1b604082015260600190565b602081016107b282846115d3565b600181811c908216806116cc57607f821691505b6020821081036116ec57634e487b7160e01b600052602260045260246000fd5b50919050565b601f82111561173c57600081815260208120601f850160051c810160208610156117195750805b601f850160051c820191505b8181101561173857828155600101611725565b5050505b505050565b815167ffffffffffffffff81111561175b5761175b6114f6565b61176f8161176984546116b8565b846116f2565b602080601f8311600181146117a4576000841561178c5750858301515b600019600386901b1c1916600185901b178555611738565b600085815260208120601f198616915b828110156117d3578886015182559484019460019091019084016117b4565b50858210156117f15787850151600019600388901b60f8161c191681555b5050505050600190811b01905550565b604081526000611814604083018561141a565b90508260208301529392505050565b634e487b7160e01b600052603260045260246000fd5b634e487b7160e01b600052601160045260246000fd5b818103818111156107b2576107b2611839565b634e487b7160e01b600052603160045260246000fd5b60006001820161188a5761188a611839565b506001019056fea2646970667358221220278154e9a1f03c008db6f8aa0f2620951b21e791e8bd176bcb088981b695118a64736f6c63430008130033",
  "linkReferences": {},
  "deployedLinkReferences": {}
}